S01800006275696C642F6D6963617A2F6D61696E2E73726563E5
S11300000C9461000C9416060C9420060C942A0699
S11300100C9434060C943E060C9448060C94770A0F
S11300200C9452060C9480000C9480000C946F176E
S11300300C945B0C0C94CE060C94E4060C943C07D4
S11300400C9405060C948F0E0C9480000C94800084
S11300500C9480000C945C060C9480000C9480003A
S11300600C94D9060C9480000C9480000C948000AD
S11300700C9480000C9480000C9480000C948000FC
S11300800C9480000C9480000C948000150F480F91
S1130090A00FC60F14101F102110251029102D10A9
S11300A04010511069100F1162116811AE11CA117C
S11300B0D0110812C112E412FA129E1400081C187E
S11300C0141011241FBECFEFD0E1DEBFCDBF11E06D
S11300D0A0E0B1E0E8E5F6E300E00BBF02C0079062
S11300E00D92A031B107D9F712E0A0E1B1E001C04F
S11300F01D92A134B107E1F70E9488150C942B1BC3
S11301000C9400008FB7F894992708958FBF089531
S1130110FC0182819927582F442781819927482BF4
S1130120592BCA01892F99278695869583709070DB
S11301308230910559F08330910559F0892B19F4D7
S113014020E030E008C02CE93FEF05C022E030E0B9
S113015002C028E030E0CA0184E0989F812D9927ED
S113016011248230910559F08330910559F0892B7F
S113017019F480E090E008C08CE99FEF05C082E0AC
S113018090E002C088E090E0280F391F2A5F3F4FBB
S1130190CF01820F931F0895282F9FB7F8946623E9
S11301A049F0E82FFF27EB53FE4F8081882311F09D
S11301B021E006C0E22FFF27EB53FE4F608320E0CF
S11301C0892F99278FBF822F99270895E82F8FB7FA
S11301D0F894282F332790E0FF27EB53FE4F8081BC
S11301E0861709F491E02FBF892F99270895882352
S11301F011F06E9A08956E980895882311F06F9AFD
S113020008956F98089580E00E94F700BA9ABB9809
S1130210B99AB89A6C9A80E00E94FD006B986A982B
S113022081E00E94F700709A8DB18C7F8DB908959A
S11302300F931F93CF93DF93182F8FB7F894C82F82
S1130240DD270C2F61E080E00E94CC00882321F0A0
S1130250CFBF85E090E024C0809108018823A1F4F9
S113026080912301823081F409C082E080932301CC
S1130270109208010E940301B89AC09810930501D6
S113028080E00FBF99270CC080912301882369F374
S11302908FB7F89499271092C5018FBF81E0F1CFF1
S11302A0DF91CF911F910F910895282F9FB7F89454
S11302B0E82FFF27E85BFE4F80818F3F81F4E091B8
S11302C03F02E21771F40BC02093310204C0FF27F0
S11302D0E85BFE4F208320933F0220E007C025E027
S11302E005C0809131028F3F91F7EECF892F992776
S11302F08FBF822F992708951F93182F81E00E94A2
S1130300F7001FB9779BFECF8FB199271F910895EE
S11303108F929F92AF92BF92CF92DF92EF92FF9211
S11303200F931F93CF93DF938FB7F8949927C090BF
S11303303A02D0903B028090BC019090BD01C091E4
S11303409101D091920120912C0130912D01EAE08C
S1130350AE2EB12CAC0EBD1E2A153B0508F4590176
S11303608FBF7401EC0EFD1E86010C0F1D1F14C0FF
S1130370C114D10419F0F801808101C080E00E9409
S11303807C018114910411F0F70180832196089473
S1130390E11CF11C0F5F1F4FC5010197C817D90756
S11303A038F381E00E94FD009FB7F894C114D10492
S11303B031F0CC0EDD1EF60180818FB901C01FB86B
S11303C0D0939201C0939101892F99278FBF80E028
S11303D090E0DF91CF911F910F91FF90EF90DF900C
S11303E0CF90BF90AF909F908F9008952FB7F894BF
S11303F0332750932D0140932C0190933B0280931B
S11304003A027093BD016093BC0110929201109264
S113041091012FBF452B29F08FB10E9488019927A4
S1130420089584E10E94550180E090E008958FB71B
S1130430F89499271092C7018FBF0895EF920F93F4
S11304401F93AE2D99E0899FF0011124E856FE4FC9
S113045040835183628373830483158326833783A4
S1130460A17080858E7F8A2B8260808781E00E94C4
S113047055011F910F91EF9008957FB7F89462B7DB
S113048020912F013091300140913101509132017E
S113049006B601FE0FC081B792B7280F311D411D6A
S11304A0511D2F5F3F4F4F4F5F4F290F311D411D8E
S11304B0511D04C0260F311D411D511D872F992741
S11304C08FBFCA01B901089580E880934501109255
S11304D06D01109235021092300210926801089555
S11304E0CF93DF93FC0115A6DC019E96ED011B82E0
S11304F01A82198280E886A7DF91CF9108952F92FE
S11305003F924F925F926F927F928F929F92AF929F
S1130510BF92CF92DF92EF92FF920F931F93CF93EC
S1130520DF93CDB7DEB728970FB6F894DEBF0FBEC2
S1130530CDBF2090740130907501409076015090A9
S11305407701662477248824BEE4AB2EA3E8BA2E70
S1130550CC24DD24EE24FF2400E010E0222D332DF2
S1130560442D552D662D772D882D90E00E940D1970
S113057029833A834B835C836D837E838F8398873F
S1130580822E932EA42EB52E2401350100E20E9462
S11305900B1AA22EB32EC42ED52EC301B2019695EA
S11305A08795779567956A0D7B1D8C1D9D1D97FF1B
S11305B005C09F776F5F7F4F8F4F9F4F609374018C
S11305C070937501809376019093770128960FB606
S11305D0F894DEBF0FBECDBFDF91CF911F910F9175
S11305E0FF90EF90DF90CF90BF90AF909F908F904F
S11305F07F906F905F904F903F902F9008958FB7AA
S1130600F89460919301709194012CB53DB506B6B0
S113061002FE04C06F5F7F4F2CB53DB599278FBF95
S113062088279927CB017727662744275527622BEC
S1130630732B842B952B0895EF92FF920F931F93A6
S11306400E94FF027B018C0120917E0130917F0189
S113065040918001509181018091790190917A01BA
S1130660A0917B01B0917C01820F931FA41FB51F41
S1130670E216F3060407150730F082179307A40760
S1130680B50758F005C082179307A407B507E0F52E
S1130690E816F9060A071B07B8F59C01AD012E19E7
S11306A03F09400B510B213060E8360760E04607F4
S11306B060E0560768F180E090E8A0E0B0E0E80E62
S11306C0F91E0A1F1B1FE0927E01F0927F01009326
S11306D080011093810180E090E8AFEFBFEFE80E56
S11306E0F91E0A1F1B1F20503048404050402093E1
S11306F0790130937A0140937B0150937C0120E08F
S113070030E840E050E014C020E030E040E050E049
S113071080937E0190937F01A0938001B093810127
S11307201092790110927A0110927B0110927C014F
S1130730A901B7012CB53DB5C9018E199F090396CE
S11307408417950720F0B9016D5F7F4F02C0640FD5
S1130750751F6115710511F461E070E0615070401E
S11307607BBD6ABD80E186BF87B7806187BF1F916B
S11307700F91FF90EF9008950F931F930FB7F89484
S1130780112760937E0170937F0180938001909381
S113079081012093790130937A0140937B01509336
S11307A07C010E941C030FBF1F910F910895CF92EB
S11307B0DF92EF92FF920F931F93CF93DF938C01FD
S11307C0F62E6A01E22E8FB7F894C82FDD2760E079
S11307D080E00E94E600882321F0CFBF80E090E013
S11307E01EC0CFBF0F0D111D802F80680E947C0199
S11307F0F82E16950795802F807C0E947C010E2D83
S11308000AC0EE2DFF27E01BF109EC0DFD1D8081D0
S11308100E947C0101500023A1F78F2D9927DF91BD
S1130820CF911F910F91FF90EF90DF90CF9008959B
S113083097B79F7D97BF90E296BF882319F08EB536
S1130840806402C08EB58F7B8EBD87B7806287BF00
S113085080E090E00895982F969596959695E5E911
S1130860F1E0E90FF11D877021E030E002C0220FB2
S1130870331F8A95E2F780818223992708959FB7D1
S1130880F894292F3327422F90910201981741F4AD
S113089080911101833021F42FBF81E090E008950D
S11308A04FBF80E090E0089580913402882319F0CE
S11308B02FE170E002C078E021E0622FEFB7F894F6
S11308C0809166018E7F8093660187B1982F9F7116
S11308D0829586958695837019F080E090E012C029
S11308E0822F8850863118F081E090E00BC040E000
S11308F050E03327892F99272817390711F441E04D
S113090050E0CA01982F9170990F80916601817807
S1130910262F2F71422F440F440F892B842B809351
S11309206601332727B9783059F5809132029091C6
S1130930330221E08638920718F087E090E01FC068
S1130940833C910518F086E090E019C0813691054A
S113095018F085E090E013C08033910518F084E02E
S113096090E00DC08831910518F083E090E007C055
S11309700C9718F082E090E002C080E090E0782FBD
S11309807770887D872B886D992786B98E2F992754
S11309908FBF0895982F969596959695E7E9F1E07F
S11309A0E90FF11D877021E030E002C0220F331FF0
S11309B08A95E2F780818223992708950F931F93E4
S11309C0CF93DF93182F8FB7F894282F3327022F54
S11309D080911101882331F581E0809311011093F6
S11309E0D3012FBF8FB7F894C82FDD279C2F809198
S11309F002018230A9F480911101813021F482E056
S1130A000E94550109C0823059F48091D30180932A
S1130A10020183E080931101CFBF80E090E025C004
S1130A209FBFFBCF8091D301811711F42FBFF5CF66
S1130A30812F0E94CA04882319F085E090E014C035
S1130A40E12FE695E695E695FF27E956FE4F1770E8
S1130A5081E090E002C0880F991F1A95E2F7208187
S1130A60282B208380E090E00FBFDF91CF911F916E
S1130A700F910895DF92EF92FF920F931F938FB718
S1130A80F894282F3327D22E91B782B746B79817F8
S1130A9011F041FF02C02FBF68C0809190018823EC
S1130AA0D1F10E943D02E090C101F090C201009199
S1130AB0C3011091C4012091410130914201409140
S1130AC04301509144016E197F09800B910B621709
S1130AD073078407950728F01092900186EE71E061
S1130AE01CC02E0D3F1D401F511F80912F0190915E
S1130AF03001A0913101B0913201281B390B4A0B0E
S1130B005B0B273E31054105510528F4822F223025
S1130B1018F482E001C086EE70E0682F615000B6E0
S1130B2001FCFDCF82B7681709F46F5F20912F0194
S1130B30309130014091310150913201DA01C90103
S1130B400196A11DB11D860F911DA11DB11D821716
S1130B509307A407B50710F4622F609561BFDFBE49
S1130B60772319F080E00E9455011F910F91FF90A7
S1130B70EF90DF900895AFB7F894BB27E1E0E093DE
S1130B8090016093C1017093C2018093C30190935B
S1130B90C401209341013093420140934301509397
S1130BA04401AFBF0E943A050895AF92BF92CF921D
S1130BB0DF92EF92FF920F931F93CF93DF93CDB702
S1130BC0DEB728970FB6F894DEBF0FBECDBF20E086
S1130BD070E0E0910001F091010132E14DE65CE446
S1130BE06FE4809101019E2F28960FB6F894DEBF22
S1130BF00FBECDBFDF91CF911F910F91FF90EF906A
S1130C00DF90CF90BF90AF9008951F920F920FB6D0
S1130C100F9211248F9383B783BF00B600FCFDCFDE
S1130C208F910F900FBE0F901F9018951F920F92E7
S1130C300FB60F9211240F900FBE0F901F901895AE
S1130C401F920F920FB60F9211240F900FBE0F90A8
S1130C501F9018951F920F920FB60F9211240F90A8
S1130C600FBE0F901F9018951F920F920FB60F9200
S1130C7011240F900FBE0F901F9018951F920F9282
S1130C800FB60F9211240F900FBE0F901F9018955E
S1130C901F920F920FB60F9211240F900FBE0F9058
S1130CA01F9018951F920F920FB60F9211240F9058
S1130CB00FBE0F901F9018951F920F920FB60F92B0
S1130CC011242F933F934F935F936F937F938F934D
S1130CD09F93AF93BF93EF93FF9344B155B178942F
S1130CE08FB7F894992720916601322F3695317089
S1130CF021708FBF2223D9F4339880918B018130E6
S1130D0021F0823009F039C00AC0332351F05093E6
S1130D10BF014093BE018CE00E9455012EC03323D5
S1130D2019F40E94540429C010928B0126C08FB775
S1130D30F89499278FBF2FB7F894332786B1582F8B
S1130D405770482F4072987D942B952B8074977B15
S1130D50982B90619F77892F992786B9887D842B5A
S1130D60852B87738061992786B9887D842B852B91
S1130D70877B8069992786B92FBFFF91EF91BF9137
S1130D80AF919F918F917F916F915F914F913F911F
S1130D902F910F900FBE0F901F90189578941F926B
S1130DA00F920FB60F9211240F900FBE0F901F9049
S1130DB0189578941F920F920FB60F9211240F90EA
S1130DC00FBE0F901F90189578941F920F920FB634
S1130DD00F9211242F933F938F939F932FB7F894DF
S1130DE033278091930190919401019690939401FB
S1130DF0809393012FBF9F918F913F912F910F90DB
S1130E000FBE0F901F901895CF93DF93CDB7DEB729
S1130E102C970FB6F894DEBF0FBECDBF8FB7F894F2
S1130E20282FAE014F5F5F4FDA01EBECF1E088E071
S1130E3001900D928150E1F780916E0190916F01C4
S1130E408987892F99278A878091820190918301CC
S1130E508B87892F99278C872FBF2CE060E080E651
S1130E6091E00E94D7032C960FB6F894DEBF0FBE14
S1130E70CDBFDF91CF9108951F920F920FB60F92BD
S1130E8011242F933F934F935F936F937F938F938B
S1130E909F93AF93BF93EF93FF9383B783BF00B642
S1130EA000FCFDCF81B799270196AA27BB27209183
S1130EB02F01309130014091310150913201280FBE
S1130EC0391F4A1F5B1F20932F0130933001409339
S1130ED031015093320178940E943A05FF91EF91C9
S1130EE0BF91AF919F918F917F916F915F914F913E
S1130EF03F912F910F900FBE0F901F901895EF9276
S1130F00FF920F931F93CF93DF93982F8FB7F8948B
S1130F10E82E80911101833009F045C080910201CF
S1130F20891709F040C080919701882309F045C0D2
S1130F303EC0EF2DE695E695E695FF274F2D552704
S1130F40E956FE4F9A012770307081E090E002C0AC
S1130F50880F991F2A95E2F7809520812823208302
S1130F60C093100111C02196C230D10511F4C0E024
S1130F70D0E0FC2E8C2F0E94CA048823D1F6C0171F
S1130F80D10789F74FEF50E04093D3018FEF80935F
S1130F90020181E08093110182E00E945501EFBEBD
S1130FA080E090E010C0EFBE81E090E00CC082E0F1
S1130FB08093020110921101F2CF80911001082F49
S1130FC01127E801D0CFDF91CF911F910F91FF90AE
S1130FD0EF9008950F931F93182F0FB7F89461E0C3
S1130FE080E00E94CC00882371F510930501809164
S1130FF008018823A9F580912301823089F583E1D2
S11310000CC00E94030180912301882349F481E0EC
S1131010809323011092690185E10E9455012AC041
S113102080917D018F3F31F5E0910701EE2311F1AD
S11310301CC01092060104C0FF27E358FE4F108223
S11310401092070117C081E090E002C0880F991F39
S11310501A95E2F720912201282B209322010AC03D
S1131060809123018823E1F6CCCF809106018F3F44
S113107019F7DFCF802F99278FBF80E090E01F9171
S11310800F9108951F9383E00E9418019927182F48
S1131090882319F083E00E94EA07812F99271F9182
S11310A008951F9380912201882309F04BC0109169
S11310B005011F3F09F046C060E00E94E600882356
S11310C009F440C081E08093D501809147018823D1
S11310D0E1F11092D50185E090E045C0923069F5C8
S11310E0C09A8091060120E030E08F3F11F421E0A6
S11310F030E0232BE9F4109308018F3F19F42FEF0C
S113110030E00DC0282F3327F901E358FE4F8081CA
S1131110809306018F3F11F41093070110832093ED
S1131120690181E08093230185E10E94550105C096
S1131130109308011092230111C080912301882388
S113114069F00FC081E090E00EC080910801909199
S11311502301882319F2923021F0EFCF80E00E941E
S1131160F70080E090E01F9108951F93CF93DF93E1
S11311709FB7F894C92FDD271C2F9091050198176C
S113118021F0CFBF81E090E03AC08FEF809305015A
S1131190309122013323F1F48FB7F89499271092F8
S11311A0C5018FBF0E945108CFBF11C02093050114
S11311B081E090E002C0880F991F4A95E2F780957C
S11311C038233093220183E10E9455011FBF80E040
S11311D090E015C080E065E0E32FFF270E948E1A9F
S11311E0292F492F5527CF01042E02C095958795A5
S11311F00A94E2F780FDDACF822F8F5FEFCFDF9181
S1131200CF911F910895FF920F931F93CF93DF9374
S1131210F82E8B018FB7F894C82FDD2760E080E0AB
S11312200E94E600882321F0CFBF80E090E00CC04C
S1131230CFBF8F2D0E947C01812F99270E947C01B2
S1131240802F0E947C019927DF91CF911F910F91EC
S1131250FF9008951F931FB7F89480916701882326
S113126019F460E070E009C060E0809139028823DD
S113127009F461E081E06827772780917101882370
S113128019F480E090E00AC090E08091CA018823BC
S113129009F491E081E09827892F9927762F662712
S11312A0770F770F770FF4E0880F991FFA95E1F71E
S11312B0826E9262682B792B81E10E940309812F4F
S11312C099278FBF1F9108958FB7F894992760913C
S11312D0D4018FBF85E0689FB0011124625D7E4F09
S11312E0706488E10E9403090895EF92FF921F93AE
S11312F0CF93DF93E0907201F0907301F70182A520
S11313009927182F882309F41FE1C098809165015B
S1131310811749F0612F77276F717070606E706864
S113132085E10E94030910936501F70110818FB7CD
S1131330F894C82FDD2760E080E00E94E60088234F
S113134011F0CFBF12C0CFBF8EE390E0909387011E
S1131350809386018EE30E947C011150412F552712
S113136060E070E0C7010E94F601DF91CF911F9108
S1131370FF90EF9008951F93CF93DF93182F8FB7AB
S1131380F894C82FDD2760E080E00E94E6008823FF
S113139021F0CFBF80E090E005C0CFBF812F0E9435
S11313A07C019927DF91CF911F910895EF92FF92CD
S11313B00F931F93CF93DF93182F7B01042F8FB7C5
S11313C0F894C82FDD2760E080E00E94E6008823BF
S11313D021F0CFBF80E090E014C0CFBF1064812F14
S11313E0992790938701809386010E947C01182F8E
S11313F0402F5527B70180E090E00E94F601812F2D
S11314009927DF91CF911F910F91FF90EF9008954D
S1131410C09860912A0170912B0141E08FE30E94F2
S1131420D609089582E090E0909361018093600171
S113143081E080936D0120E030E0809105018430EB
S113144011F421E030E0232B29F484E00E941801F8
S1131450882319F40E94080A089584E00E94EA0788
S113146008951F93CF93DF938FB7F894C82FDD2788
S11314701C2F8091600190916101892B29F484E0F3
S11314800E94B508CFBF1EC010926D018091680103
S1131490882311F0B79904C00E9908C0882319F065
S11314A08150809368010E94120A0BC081E090E091
S11314B090936101809360011092680184E00E941E
S11314C0B5081FBFDF91CF911F9108950E94640258
S11314D0C09AC09888E00E94BB0988E00E94BB09BA
S11314E0C09A84E00E94B5080E94310A08951F92B0
S11314F00F920FB60F9211242F933F934F935F9344
S11315006F937F938F939F93AF93BF93EF93FF93C7
S11315108091600190916101019749F482E090E02B
S113152090936101809360010E94120A05C080912A
S113153068018F5F80936801FF91EF91BF91AF9134
S11315409F918F917F916F915F914F913F912F91D7
S11315500F900FBE0F901F9018951F93182F81E0C6
S113156090E09093250180932401109247010E94FA
S113157051088FB7F894992710931E018FBF8FE0FD
S11315800E9455011F910895AF92BF92CF92DF92AE
S1131590EF92FF920F931F93CF93DF935B016C0144
S11315A0C0E0D0E0E8E9F1E0608561FFEBC02081B4
S11315B0318142815381E480F58006811781D6010F
S11315C0C501821B930BA40BB50B8E159F05A007B9
S11315D0B10708F4D7C060FF03C06D7F608708C0FF
S11315E02E0D3F1D401F511F20833183428353839F
S11315F0C13041F0C13020F0C23009F0C9C084C00C
S1131600AA98C6C080E00E943F04882309F43AC027
S11316109FB7F89420911301222319F421E030E0BC
S11316200FC080910301813019F020E030E008C040
S113163040E050E02150223010F441E050E09A01A3
S1131640892F99278FBF2223E9F08FB7F894082FA9
S11316501127902F80910301813099F48091130117
S1131660813021F483E00E94550109C0823049F49D
S1131670809170018093030183E0809313010FBF75
S113168001C09FBF81E00E943F04882309F480C009
S11316909FB7F89420911401222319F421E030E03B
S11316A00FC080911501882319F020E030E008C0B4
S11316B040E050E02150223010F441E050E09A0123
S11316C0892F99278FBF222309F462C08FB7F8941A
S11316D0082F1127902F80911501882399F4809168
S11316E01401813021F484E00E94550109C0823044
S11316F049F4809162018093150183E08093140181
S11317000FBF46C09FBF44C08091A00181FF2AC083
S1131710E0909C01F0909D0100919E0110919F0129
S11317200E943D029B01AC01809198019091990126
S1131730A0919A01B0919B01281B390B4A0B5B0BBA
S11317402E153F054007510768F4E21AF30A040B0B
S1131750150B89EBE8168BE0F80680E0080780E0BB
S11317601807B0F40E943D02AB01BC01B1E0EB2EBE
S113177008EB1BE020E030E080E00E941E02A29A09
S1131780AA9A06C021963996C430D10509F00CCF27
S113179081E00E945501DF91CF911F910F91FF903D
S11317A0EF90DF90CF90BF90AF900895CF92DF92EB
S11317B0EF92FF920F931F93CFB6F894DD240E940B
S11317C07F02DC01CB0166E470E00E949A1A1BE000
S11317D0E12EF12CE80EF91EF0923D02E0923C025B
S11317E00E94FF0200271127A80197010E94BC0351
S11317F0CFBE1F910F91FF90EF90DF90CF9008958F
S11318001F93CF93DF938FB7F894C82FDD271C2F36
S113181080912401909125010897C9F489E00E94E0
S1131820BB0983E00E94B508C09A81E090E09093E0
S11318302501809324018FB7F894992723E02093FE
S11318401E018FBF8FE00E945501CFBF30C0C098EA
S113185080914002882311F085E001C084E00E9459
S1131860BB0983FD09C080E00E94BB0983FF04C05B
S113187085E090E020E003C083E090E021E09093D5
S1131880250180932401C09A1FBF222341F01092A6
S11318902E0183E00E94B5080E94D60B08C00E9466
S11318A0FF0220E431E040E050E00E94BC03DF91FD
S11318B0CF911F91089578941F920F920FB60F92B3
S11318C011241F932F933F934F935F936F937F93B1
S11318D08F939F93AF93BF93EF93FF9387B78F7EBD
S11318E087BF78941FB7F8948091790190917A0119
S11318F0A0917B01B0917C010097A105B10509F08D
S113190051C080912401909125018530910561F1A8
S11319108630910530F48330910549F0049781F5C0
S11319201AC087309105F1F0089751F514C0869BD1
S11319300FC084E090E090932501809324010E94DD
S1131940FF0227E030E040E050E00E94BC0318C0F2
S11319500E94D60B15C00E944208882389F40E9475
S1131960000C0EC080E00AC089E00E94BB0981E03F
S11319700E94180483E00E94B50887E00E94AD0A23
S113198080911F0190912001019771F482E090E011
S11319909093200180931F01DE98DE9A80E00E94DC
S11319A0EA0702C00E941C03812F99278FBFFF9171
S11319B0EF91BF91AF919F918F917F916F915F91C3
S11319C04F913F912F911F910F900FBE0F901F9039
S11319D01895EF92FF920F931F93CF93DF938B0190
S11319E0809186019091870186FF40C18F7B8F3360
S11319F009F08EC1C0912A01D0912B0158815093D6
S1131A00630180916001909161018530910509F431
S1131A1043C08630910509F48AC0029709F01FC1BA
S1131A2085E090E0909361018093600140914501CD
S1131A30852F99270196242F3327281739074CF12E
S1131A40B79906C00E9904C0451B41504093450107
S1131A50409163014A32E8F44423A1F0BE016F5F70
S1131A607F4F483018F047E050E007C086E090E030
S1131A709093610180936001552780E090E00E947B
S1131A80F60146C110926D01C09A84E00E94B50827
S1131A90E3C00E94660A3CC186E090E09093610135
S1131AA08093600180917101882309F439C0809189
S1131AB0CA018823A9F5898185FF32C08F814E81AF
S1131AC02FB7F894332760918201709183012FBF5F
S1131AD09927982F88275527842B952B86179707A6
S1131AE059F08F812E819927982F88273327822BAD
S1131AF0932B8F5F9F4FA1F489818770813081F48C
S1131B00C09AC0988AE00E94BB09C09AC0984091CC
S1131B10630147502896BE018FE30E94D609F8C09E
S1131B2040916301475055272896BE01A6CFC09A1D
S1131B3080916801882339F484E00E94B50880917B
S1131B406801882311F0B7990AC00E9B08C09091D0
S1131B503002992321F0809163018B3038F4809115
S1131B602A0190912B010E9470023DC0913001F531
S1131B70E0913502FF27EE0FFF1FEE0FFF1FE45227
S1131B80FE4F2081318142815381E0912A01F091FD
S1131B902B0121ABBB27A52F942F832F80ABCA0128
S1131BA0AA27BB2787A7252F33274427552726A7EE
S1131BB0809135029927019668E070E00E94AE1A80
S1131BC080933502809130028150809330028823C3
S1131BD051F080912A0190912B010E947002109281
S1131BE035021092300280916301FE01E80FF11D6D
S1131BF0808187FF31C0012B79F169816770E091A1
S1131C002A01F0912B01623019F5A0917201B09173
S1131C107301109709F18091240190912501079790
S1131C20D9F4ED019B8183819817B1F487B78F7E36
S1131C3087BF908181E08CA7E90FF11D82913196D5
S1131C4088A780818F7789A780E00E94AD0A04C0AD
S1131C50613011F486E12AC00E94310A59C0109201
S1131C606D01C09A84E00E94B50852C08E3309F019
S1131C704FC0C09A80912401909125010897C9F41E
S1131C80C09889E00E94BB09C09A83E00E94B5080D
S1131C9081E090E090932501809324018FB7F8941C
S1131CA0992723E020931E018FBF8FE00E945501E6
S1131CB02FC080914002882349F484E090E09093FF
S1131CC02501809324010E94000C22C083E00E941D
S1131CD0B50883E090E090932501809324010E944D
S1131CE07F02DC01CB0166E371E00E949A1A0BE0EB
S1131CF0E02EF12CE80EF91EF0924001E0923F0133
S1131D000E94FF0200271127A80197010E94BC032B
S1131D10DF91CF911F910F91FF90EF9008951F9243
S1131D200F920FB60F9211242F933F934F935F930B
S1131D306F937F938F939F93AF93BF93EF93FF938F
S1131D402FB1E091BC01F091BD01309739F0809141
S1131D50910190919201E80FF91F208380919101E4
S1131D60909192010196909392018093910180E069
S1131D700E94FD0040912C0150912D018091910110
S1131D80909192018417950718F40E9488011CC051
S1131D906091BC017091BD0180913A0290913B0227
S1131DA01092BD011092BC0110923B0210923A02B3
S1131DB010922D0110922C01109292011092910117
S1131DC02FB120E00E94E90CFF91EF91BF91AF91F8
S1131DD09F918F917F916F915F914F913F912F913F
S1131DE00F900FBE0F901F901895AF92BF92CF9295
S1131DF0DF92EF92FF920F931F93CF93DF93CDB7B0
S1131E00DEB7A8970FB6F894DEBF0FBECDBFE82F9C
S1131E10FF27E831F10508F04DC6EA5BFF4FEE0FEE
S1131E20FF1F0590F491E02D0994809164018823AB
S1131E3061F52091D8013091D9014091DA01509196
S1131E40DB01EFB7F894FF276091C1017091C201E3
S1131E508091C3019091C401E0904101F09042014E
S1131E6000914301109144016E0D7F1D801F911F4D
S1131E70EFBF2093D8013093D9014093DA015093F6
S1131E80DB01109264010E94BB050E943D0243C025
S1131E900E943D025B016C018FB7F8949927109260
S1131EA090018FBFFFEFEF2EFFEFFF2EFFEF0F2FFD
S1131EB0FFE71F2F60E0E8E9F1E0808581FF1CC0A7
S1131EC080819181A281B381A6019501281B390BE0
S1131ED04A0B5B0BDA01C9012481358146815781A4
S1131EE0281B390B4A0B5B0B2E153F054007510786
S1131EF01CF479018A0161E0399631E0EC3BF30787
S1131F00E1F6662309F4D6C51E141F041006110653
S1131F102CF0C601B5010E94C40ACCC5E092D801D8
S1131F20F092D9010093DA011093DB0181E08093F0
S1131F306401A8019701C601B5010E94BB05BAC599
S1131F408FB7F89499272091D3012093020123E0BD
S1131F50209311018FBF80910201882321F08130E9
S1131F6009F0A8C503C0159A1D9A02C0A09AA89AA0
S1131F700E943D02AB01BC01E1E0EE2E0AE010E05C
S1131F8020E030E081E00E941E0294C52FB7F8944F
S1131F903327809170018093030143E04093130140
S1131FA02FBF809103018093D7018FB7F894082F36
S1131FB0112780911B01882341F581E080931B0147
S1131FC0109296010FBF8FB7F8949927379A8FBF55
S1131FD08FB7F894082F1127902F80910401813036
S1131FE091F480911B01813021F48BE00E94550112
S1131FF008C0823041F4809196018093040140939B
S11320001B010FBF57C59FBF55C5809196018823FB
S1132010C1F380E00E942B04882399F780919501F5
S1132020816080939501EDCF8FB7F8949927209123
S113203062012093150123E0209314011FC080E066
S113204005C01D98159889E0D2C281E00E94DE0483
S113205031C5A898A0988AE0CAC280E00E947F0790
S113206080911701813019F480E00E94DE048FB75B
S1132070F894992710921701109216018FBF1AC570
S113208081E00E947F0780911901813011F40E9440
S1132090DE048FB7F8949927109219011092180151
S11320A0EDCF2FB7F89433278091960180930401E4
S11320B083E080931B012FBF80910401882309F0E2
S11320C0F9C481E080938B01109234020E9454047D
S11320D0F1C410928B0180913402882309F0EAC480
S11320E08FB7F894C82E80911B01833009F041C04A
S11320F0809104018823E9F580919501882309F0F2
S1132100C4C4BCC4ED2DE695E695E695FF274D2D98
S11321105527EB56FE4F9A012770307081E090E00E
S113212002C0880F991F2A95E2F780952081282301
S1132130208300931A0112C00F5F1F4F0130110555
S113214011F400E010E0D02E802F0E942B0488238D
S1132150C9F60E151F0581F74FEF50E04093960125
S11321608FEF8093040181E080931B018BE00E9438
S11321705501CFBE80E00E943F04882309F44BC080
S11321809091D7018FB7F894F82E80911301833082
S113219009F040C0809103018917E1F5809146015F
S11321A0882309F081C477C49095A923A083609300
S11321B0120125C06F5F7F4F6130710511F460E03B
S11321C070E0862F869586958695E82FFF27EA5B33
S11321D0FE4FA081462F55279A012770307081E069
S11321E090E002C0880F991F2A95E2F7982F8A2F52
S11321F08923D1F660177107E9F64FEF50E0409359
S113220070018FEF8093030181E08093130183E0D9
S11322100E945501FFBE81E00E943F044BC40FB7EA
S1132220F894112781E00E94180441E0E42EF12C77
S1132230F0922501E09224011092260110924701A8
S1132240109265010FBF0FB7F89411270E94640222
S1132250F0926101E092600110926D0189B78F7B69
S113226089BF80E488BF8AB780628ABF8AB78F7EBD
S11322708ABF89B7806489BF0FBF8FB7F894082FCE
S1132280112780911F0190912001049719F483E094
S11322900E94BB090FBF0FB7F8941127C09A80E0C2
S11322A00E94B5080FBF8FB7F894992722E02093B6
S11322B0C6018FBF2FB7F89433278BB391E08927DA
S11322C08BBBC0C38FB7F89499271092C601D6CEA2
S11322D08FB7F89499278FBF63E081E00E94E600EE
S11322E0882359F10FB7F894112710922501109201
S11322F0240187B78F7E87BF87B78F7D87BF83E031
S11323000E94B508C09A0FBF0FB7F8941127109216
S11323106101109260010E946402C09A89B78F7BA8
S113232089BF0FBF1092200110921F01DE98DD9823
S1132330DE9A8EE00E94550107C08FB7F894992762
S113234022E02093C6018FBF0E94170280913602BB
S113235090913702892B09F0ADC38CC38FB7F894E1
S1132360282F3327122F80913E02882309F06AC355
S113237081E080933E0280911F0190912001049797
S113238021F481E00E94EA0703C081E10E94550123
S11323901FBF90C38FB7F894992710923E026ECE58
S11323A08FB7F894282F332780912101882309F0CF
S11323B049C32FBF80B3992736E0969587953A9500
S11323C0E1F7182F1170909184018091850189178C
S11323D0D9F01917C9F484E090E090932001809318
S11323E01F018FB7F894992721E0209321018FBF13
S11323F060E070E08DE10E9403090E940407C09A26
S1132400C0988DE00E9455011093850182E1EFC0D0
S11324108FB7F8949927109105018FBF123009F4F2
S113242065C0133030F4112359F0113009F042C360
S113243048C0133009F474C0143009F03BC39EC083
S1132440C0988FB7F894082F112780911F0190919D
S11324502001029709F0D5CD83E090E0909320010C
S113246080931F0168E170E08DE10E94030981E01F
S1132470809384011092210180B3992726E09695D8
S113248087952A95E1F7817090708093850182E1A8
S11324900E94550181E00E94BB096FE772E08CE164
S11324A00E9403090E9464090E942A0966E57AE2EF
S11324B087E10E9403096FEF70E885E10E94030938
S11324C0A0CDC09886E00E94BB090E9464090E94C6
S11324D02A090E940407C09AC09883E00E94BB099D
S11324E0C09A81E00E94B50881E181C0C0988FB78D
S11324F0F894082F112760E080E00E94E60088230A
S113250011F00FBF0AC00FBF83E50E947C0180E079
S11325100E947C0180E00E947C01C09A82E02BC072
S11325208FB7F8949927209124018FBF243029F084
S1132530283031F02230F1F49AC20E94000CBAC261
S1132540C09889E00E94BB09C09A83E00E94B50844
S11325508FB7F894992721E030E030932501209338
S113256024018FBF8FB7F894992710931E018FBF52
S11325708FE03DC083E00E94B5089CC20E94080A17
S113258099C20FB7F894112740912C0150912D0155
S11325906091BC017091BD0180913A0290913B021F
S11325A01092BD011092BC0110923B0210923A02AB
S11325B010922D0110922C0110929201109291010F
S11325C020E00E94E90C1DCD2FB7F89433278091A9
S11325D069018093080182E0809323012FBF8091D9
S11325E00801882309F066C2B89AC09883E10E9462
S11325F0550160C2A0912A01B0912B01FC909D016C
S11326002F0D311DF9018081881F8827881FFD0146
S113261083A7F90180818F77FD0181A72150304084
S1132620F9018081FD0180A7A0912A01B0912B01BD
S1132630FD0132818FB7F8949927209167018FBFEC
S1132640222309F490C0832F992796958795969510
S11326508795837090708230910541F5878146811A
S11326602FB7F894332760918201709183012FBFB3
S11326709927982F88275527842B952B86179707FA
S113268019F481E090E06CC0FD018781268140E06F
S113269050E09927982F88273327822B932B8F5F1D
S11326A09F4F11F441E050E0CA015AC0039709F06A
S11326B03CC19E012F5F3F4F4BEC51E088E0FA0193
S11326C00190AF01F90101929F018150C1F79E0170
S11326D02F5D3F4FAE014F5F5F4F88E0FA010190DD
S11326E0AF01F90101929F018150C1F79E01275F5B
S11326F03F4FAE014F5D5F4F88E0FA010190AF019B
S1132700F90101929F018150C1F79E012F5E3F4F55
S1132710AE01475F5F4F88E0FA010190AF01F90114
S113272001929F018150C1F79E01275E3F4FAE0188
S11327304F5E5F4F88E0FA010190AF01F901019209
S11327409F018150C1F748E050E0BE01675E7F4FB2
S1132750CD0106960E94171B892B09F0E6C003C021
S1132760882309F4E2C0FCE0FF1508F0DEC0C09045
S11327702A01D0902B01F6012281822F992736E07D
S1132780969587953A95E1F7039719F468E070E018
S113279002C062E070E0822F9927969587959695FE
S11327A0879583709070039719F488E090E002C0D5
S11327B082E090E026E030E0C20ED31E40E050E01C
S11327C020E030E0F601E80FF91F8AEF9FEFC80E12
S11327D0D91E05C08191480F511D2F5F3F4F261709
S11327E03707C4F3F60163818FEF809338028FB704
S11327F0F894782F20E030E0E3E3F1E080819181E8
S11328008417950729F48281861731F120933802C1
S11328102F5F3F4F33962430310581F77FBF90916E
S113282038023FB7F8949F3F21F080912701891720
S1132830A9F420912701822F9927FC01EE0FFF1F95
S1132840E80FF91FED5CFE4F5183408362832F5FD5
S11328502370209327010EC07FBF63C0892F99275F
S1132860FC01EE0FFF1FE80FF91FED5CFE4F5183D3
S113287040836283832F99278FBF0FB7F894112762
S1132880C6010E948800FC0190810FBFF60183A558
S1132890882309F446C09F3309F043C087814681E9
S11328A02FB7F89433276091090170910A012FBF63
S11328B09927982F88275527842B952B86179707B8
S11328C059F0878126819927982F88273327822BCF
S11328D0932B8F5F9F4F29F5F6018385863009F589
S11328E0F1E1FF16F1F4F601868527859927982FE3
S11328F088273327822B932B90931D0180931C01EF
S1132900049779F4D998D89A0E943D02AB01BC018E
S1132910E1E0EE2E08E813E120E030E082E00E94DE
S11329201E02D0922B01C0922A018FB7F8949927E6
S113293010926D018FBF0E94310ABCC09091780142
S113294080910C01981709F4B5C090930C01992358
S113295009F090C0E0902801F09029010FB7F89495
S11329601127C7010E948800FC018FE380830FBFF9
S1132970109237021092360261E082E00E94CC008D
S1132980882309F077C08091D6018F5F8093D601A8
S11329908150F70183838FB7F894082F112762E0E1
S11329A081E00E94E600882321F40FBF0E941702F1
S11329B061C08FB7F894992724E02093C6018FBF94
S11329C0F0928F01E0928E010FBFD7011196FD01A5
S11329D08181F70121819927982F88273327822B1A
S11329E0932B80729C7C8183892F9927FD0181839D
S11329F0F7012181982F882733272164822B932B79
S1132A008183892F9927FD018183F70114A610A6DC
S1132A1011A611AA10AA17A680E886A761E0609300
S1132A20C90140918E0150918F018FB7F894282FDE
S1132A30332780912401909125018830910511F06C
S1132A40019711F02FBF36C082E090E090932501EA
S1132A508093240160934002509373014093720168
S1132A6010922E012FBF0E944208882319F50E945C
S1132A70750920C08FEF80930C011CC081E0809306
S1132A80040110921B01379874CB80911A01E82E2F
S1132A90FF24870151CB81E080930301109213013D
S1132AA08093160186E0B4CB80911201082F112780
S1132AB0B80180CBA8960FB6F894DEBF0FBECDBF89
S1132AC0DF91CF911F910F91FF90EF90DF90CF9006
S1132AD0BF90AF900895809131028F3FB1F0282FBD
S1132AE03327F901E85BFE4F8081809331028F3FE9
S1132AF011F480933F028FEF80832F3F31F0822FB8
S1132B000E94F50E81E090E0089580E090E0089541
S1132B101F93CF93DF93CDB7DEB7E0970FB6F8944A
S1132B20DEBF0FBECDBF1FB7F89448E150E06FEF92
S1132B3070E088E491E00E94241B8FEF80933102BF
S1132B4080933F0281E08EBD88E080BF83E083BF35
S1132B508CB59DB54AE72CB53DB52817390708F45F
S1132B604150442311F0C901F6CF92B782B78917B7
S1132B70E9F32CB53DB592B782B78917E9F38CB563
S1132B809DB5821B930B4096A5E096958795AA95D3
S1132B90E1F7909333028093320213BE83B78EBD64
S1132BA08EB580BF12BE1DBC1CBC8FEF86BF86B71E
S1132BB080937C0080B7992787709070892BD1F718
S1132BC0D29AD19AD09ADA9AD99AD89A15BA8FEF1A
S1132BD084BBD498DC981DBC1CBC87B7846087BFB9
S1132BE08EB5887F84608EBD16B80E946B158823CD
S1132BF0E1F78FEF80936A01E3E3F1E08FEF9FEF5A
S1132C00918380831282339621E0EF33F207C1F778
S1132C100E947F026093D60180910001909101018E
S1132C200196AA27BB278093740190937501A09302
S1132C307601B09377018CEF91E090932B01809310
S1132C402A018E98B89A8C988FEF80937D01109208
S1132C50C5011092C6011092C7011092C801B89A1A
S1132C60D69AD59A8FB7F894992720910901309173
S1132C700A018FBF30938301209382010E94D505FE
S1132C8029A73AA74BA75CA76DA77EA78FA798ABE8
S1132C90DE019196FE01B99688E001900D92815073
S1132CA0E1F7DE015196FE01B19688E001900D92A4
S1132CB08150E1F7DE015996FE01719688E001909A
S1132CC00D928150E1F7ABECB1E0FE01799688E01A
S1132CD001900D928150E1F780910B019927909317
S1132CE06F0180936E018FE18093C0018AE180932C
S1132CF0D4010E94D50529A73AA74BA75CA76DA7C5
S1132D007EA78FA798ABDE019196FE01B99688E065
S1132D1001900D928150E1F7DE011196FE01B1960A
S1132D2088E001900D928150E1F7DE011996FE01D1
S1132D30319688E001900D928150E1F7ABECB1E05F
S1132D40FE01399688E001900D928150E1F7ABECD9
S1132D50B1E0FD0137969C9180818D9390833197EA
S1132D6081E0EE3CF807B9F781E0809367011092A7
S1132D703902809371011092CA0110929501109248
S1132D8046011092970180B7886080BF8BE083BFB3
S1132D9086EE81BF87B7826087BF0E943A050E9492
S1132DA06B158823E1F7812F99278FBF789461E011
S1132DB081E00E94CC008823E9F48FB7F894282F8F
S1132DC0332780911F0190912001892B11F02FBF8F
S1132DD01BC081E090E09093200180931F012FBFDE
S1132DE0DD9A0E94FF0224E130E040E050E00E94BE
S1132DF0BC030AC062E081E00E94E600882321F45B
S1132E0061E081E00E94E6008FB7F894482F5527CF
S1132E104BC087B7992783709070892B19F4E5E02C
S1132E20F0E013C080B7992787709070892BD1F791
S1132E3081B792B7891B8C3030F082B7853F18F484
S1132E40E3E0F0E002C0E2E0F0E087B7887BC1F4A1
S1132E5080917D008B7FA1F46E9912C08AB190910C
S1132E609A00892B887161F48091740082FD08C0F6
S1132E70379B03C081E090E005C085E090E002C08C
S1132E8080E090E025B78E1708F4E82FFF27E4547C
S1132E90FF4FE491237E2062E22BE5BF789488956E
S1132EA0F89485B78F7D85BF809131028F3F09F4F7
S1132EB0B0CF282F3327F901E85BFE4F8081809340
S1132EC031028F3F11F480933F028FEF80832F3FB5
S1132ED009F49FCF4FBF822F0E94F50E95CF7894AF
S1132EE01F920F920FB60F9211242F923F924F927E
S1132EF05F926F927F928F929F92AF92BF92CF9286
S1132F00DF92EF92FF920F931F932F933F934F9370
S1132F105F936F937F938F939F93AF93BF93CF935D
S1132F20DF93EF93FF93C6B5D7B58FB7F894282EE8
S1132F300E94FF029B012C1B3D0B442755272B01AC
S1132F403C01421A530A640A750A80912401909143
S1132F5025018530910521F0069709F0E0C0BFC036
S1132F6086E090E0909325018093240131E0332E94
S1132F7030926B011092260180E00E941804E091C7
S1132F807201F091730141AABB27A72D962D852DBF
S1132F9080ABC301AA27BB2787A7872D9927AA2718
S1132FA0BB2786A7E0917201F091730185A5882360
S1132FB009F484C06081655077274F01860E971EFF
S1132FC0F4012081E1808281A3809927AA27BB276D
S1132FD0BA2FA92F982F8827332744275527522FF4
S1132FE0442733272227FF24002711278701FF24A2
S1132FF0EE242E293F29402B512BBB24CC24DD2445
S11330002A293B294C295D29822B932BA42BB52BF0
S113301084199509A609B7098383292F3A2F4B2FC1
S1133020552722839D014427552721838B2F9927D8
S1133030AA27BB278083C09824E0A40180E090E005
S11330400E94D703C09AF4012081E1808281A38089
S11330509927AA27BB27BA2FA92F982F8827332768
S113306044275527522F442733272227FF2400279C
S113307011278701FF24EE242E293F29402B512BB1
S1133080BB24CC24DD242A293B294C295D29822B0D
S1133090932BA42BB52B840D951DA61DB71D8383DF
S11330A0292F3A2F4B2F552722839D01442755273B
S11330B021838B2F9927AA27BB278083E091720154
S11330C0F0917301818185FF02C03092470183E052
S11330D00E94B50887B78F7E87BF84997AC0109203
S11330E06B0181E00E941804E0917201F091730178
S11330F0818185FF0FC087E090E090932501809344
S113310024010E94FF0220E031E040E050E00E94F0
S1133110BC0303C080E00E94AD0A849B5AC0809126
S11331202601882391F580916B01882371F511E0C4
S113313010936B010E94180480B320913002283050
S113314098F4E0913502E20FFF27E770F070EE0F7C
S1133150FF1FEE0FFF1FE452FE4F40825182628236
S113316073822F5F2093300210932601D09389013C
S1133170C093880184992DC09927B4E096958795CA
S1133180BA95E1F7182F117001C010E080916B011E
S11331908130F9F410926B010E94180410922601F8
S11331A01123B9F48091880190918901C81BD90B2E
S11331B02A9778F480913002882319F08150809303
S11331C030028091720190917301009711F00E9476
S11331D070022FBEFF91EF91DF91CF91BF91AF911C
S11331E09F918F917F916F915F914F913F912F911B
S11331F01F910F91FF90EF90DF90CF90BF90AF9011
S11332009F908F907F906F905F904F903F902F9002
S11332100F900FBE0F901F901895ACE2B0E0E3E161
S1133220F9E10C94E01A222E332E442E552E662EEC
S1133230772E882E992EFE013196A8E01192AA9538
S1133240E9F729823A824B825C826D827E828F8288
S11332509886FE013996B8E01192BA95E9F7A986E5
S1133260BA86CB86DC86ED86FE860F87188B89812D
S11332709A81AB81BC8189A79AA7ABA7BCA77C0123
S11332808D018FEF9FEFA0E0B0E0E822F9220A233E
S11332901B2389A59AA5ABA5BCA51D0144245524CF
S11332A089859A85AB85BC858DA39EA3AFA3B8A75A
S11332B05C016D018FEF9FEFA0E0B0E0A822B9227E
S11332C0CA22DB228DA19EA1AFA1B8A53D0188240D
S11332D09924C801B701A60195010E94C11A69A3E6
S11332E07AA38BA39CA3C801B701A40193010E94F4
S11332F0C11A7B018C01C201B101A60195010E9492
S1133300C11A5B016C01C201B101A40193010E94C5
S1133310C11A3B014C01EA0CFB1C0C1D1D1D89A1AB
S11333209AA1ABA1BCA19D01442755272E0D3F1D99
S1133330401F511F2A153B054C055D0540F480E0F4
S113334090E0A1E0B0E0680E791E8A1E9B1ECA01BF
S1133350AA27BB27860D971DA81DB91D8D8F9E8F8B
S1133360AF8FB8A3A9013327222789A19AA1ABA1C2
S1133370BCA1A070B070280F391F4A1F5B1F298F92
S11333803A8F4B8F5C8FA98CBA8CCB8CDC8CED8CF8
S1133390FE8C0F8D18A1FE01719698E011929A95FA
S11333A0E9F7ED8AFE8A0F8B188F2D813E814F81BC
S11333B058856DA17EA18FA198A50E94C11A3B01D9
S11333C04C012D853E854F85588969A57AA58BA525
S11333D09CA50E94C11A2D893E894F89588D260FBC
S11333E0371F481F591F260D371D481D591D2D8B8A
S11333F03E8B4F8B588F6D887E888F88988C2A2DB2
S11334003B2D4C2D5D2D662D772D882D992DE2E1D8
S1133410AC960C94FC1AA0E1B0E0E1E1FAE10C9462
S1133420E01A222E332E442E552E662E772E882E09
S1133430992E002309F466C088E0FE0131961192AA
S11334408A95E9F729833A834B835C836D837E8372
S11334508F829887E0E2E01B1E16CCF52D813E8119
S11334604F815885602F772767FD7095DA01C90170
S1133470062E04C0B695A795979587950A94D2F71A
S11334808D879E87AF87B88B04C0220F331F441FDC
S1133490551FEA95D2F789819A81AB81BC8104C01A
S11334A0B695A795979587956A95D2F7282B392BCA
S11334B04A2B5B2B29873A874B875C8729843A847C
S11334C04B845C846D847E848F8498881BC01D86A5
S11334D01E861F86188A2E2F332727FD3095309598
S11334E021953F4F8D819E81AF81B88504C0B695EB
S11334F0A795979587952A95D2F789879A87AB8759
S1133500BC87DCCF222D332D442D552D662D772DF0
S1133510882D992DE2E160960C94FC1A991B79E0B0
S113352004C0991F961708F0961B881F7A95C9F74F
S113353080950895AA1BBB1B51E107C0AA1FBB1F9E
S1133540A617B70710F0A61BB70B881F991F5A952B
S1133550A9F780959095BC01CD01089597FB092E9C
S113356007260AD077FD04D0E5DF06D000201AF440
S1133570709561957F4F0895F6F7909581959F4FCB
S11335800895629FD001739FF001829FE00DF11DA9
S1133590649FE00DF11D929FF00D839FF00D749FC9
S11335A0F00D659FF00D9927729FB00DE11DF91F75
S11335B0639FB00DE11DF91FBD01CF0111240895D2
S11335C02F923F924F925F926F927F928F929F922F
S11335D0AF92BF92CF92DF92EF92FF920F931F931D
S11335E0CF93DF93CDB7DEB7CA1BDB0B0FB6F894CE
S11335F0DEBF0FBECDBF09942A88398848885F840E
S11336006E847D848C849B84AA84B984C884DF807E
S1133610EE80FD800C811B81AA81B981CE0FD11D62
S11336200FB6F894DEBF0FBECDBFED010895FB01C8
S1133630DC0104C08D910190801921F44150504067
S1133640C8F7881B990B0895DC0101C06D934150A4
S10B36505040E0F70895FFCF9C
S11336580100020101FFFFFFFF010022FFFFFF003D
S9030000FC
